{
  "contractName": "Voting",
  "abi": [
    {
      "inputs": [],
      "stateMutability": "nonpayable",
      "type": "constructor"
    },
    {
      "anonymous": false,
      "inputs": [
        {
          "indexed": false,
          "internalType": "uint256",
          "name": "proposalId",
          "type": "uint256"
        },
        {
          "indexed": false,
          "internalType": "string",
          "name": "name",
          "type": "string"
        }
      ],
      "name": "ProposalAdded",
      "type": "event"
    },
    {
      "anonymous": false,
      "inputs": [
        {
          "indexed": false,
          "internalType": "uint256",
          "name": "proposalId",
          "type": "uint256"
        },
        {
          "indexed": false,
          "internalType": "address",
          "name": "voter",
          "type": "address"
        }
      ],
      "name": "Voted",
      "type": "event"
    },
    {
      "inputs": [],
      "name": "owner",
      "outputs": [
        {
          "internalType": "address",
          "name": "",
          "type": "address"
        }
      ],
      "stateMutability": "view",
      "type": "function",
      "constant": true
    },
    {
      "inputs": [
        {
          "internalType": "uint256",
          "name": "",
          "type": "uint256"
        }
      ],
      "name": "proposals",
      "outputs": [
        {
          "internalType": "string",
          "name": "name",
          "type": "string"
        },
        {
          "internalType": "uint256",
          "name": "voteCount",
          "type": "uint256"
        }
      ],
      "stateMutability": "view",
      "type": "function",
      "constant": true
    },
    {
      "inputs": [],
      "name": "proposalsCount",
      "outputs": [
        {
          "internalType": "uint256",
          "name": "",
          "type": "uint256"
        }
      ],
      "stateMutability": "view",
      "type": "function",
      "constant": true
    },
    {
      "inputs": [
        {
          "internalType": "address",
          "name": "",
          "type": "address"
        }
      ],
      "name": "voters",
      "outputs": [
        {
          "internalType": "bool",
          "name": "",
          "type": "bool"
        }
      ],
      "stateMutability": "view",
      "type": "function",
      "constant": true
    },
    {
      "inputs": [
        {
          "internalType": "string",
          "name": "_name",
          "type": "string"
        }
      ],
      "name": "addProposal",
      "outputs": [],
      "stateMutability": "nonpayable",
      "type": "function"
    },
    {
      "inputs": [
        {
          "internalType": "uint256",
          "name": "_proposalId",
          "type": "uint256"
        }
      ],
      "name": "vote",
      "outputs": [],
      "stateMutability": "nonpayable",
      "type": "function"
    },
    {
      "inputs": [
        {
          "internalType": "uint256",
          "name": "_proposalId",
          "type": "uint256"
        }
      ],
      "name": "getProposal",
      "outputs": [
        {
          "internalType": "string",
          "name": "",
          "type": "string"
        },
        {
          "internalType": "uint256",
          "name": "",
          "type": "uint256"
        }
      ],
      "stateMutability": "view",
      "type": "function",
      "constant": true
    },
    {
      "inputs": [],
      "name": "getWinningProposal",
      "outputs": [
        {
          "internalType": "string",
          "name": "",
          "type": "string"
        }
      ],
      "stateMutability": "view",
      "type": "function",
      "constant": true
    }
  ],
  "bytecode": "0x608060405234801561001057600080fd5b50336000806101000a81548173ffffffffffffffffffffffffffffffffffffffff021916908373ffffffffffffffffffffffffffffffffffffffff160217905550610e7d806100606000396000f3fe608060405234801561001057600080fd5b50600436106100885760003560e01c80638da5cb5b1161005b5780638da5cb5b14610114578063a3ec138d14610132578063a513462014610162578063c7f758a81461018057610088565b80630121b93f1461008d578063013cf08b146100a95780630a9f46ad146100da5780632fdae3c5146100f8575b600080fd5b6100a760048036038101906100a2919061094e565b6101b1565b005b6100c360048036038101906100be919061094e565b61034f565b6040516100d1929190610af5565b60405180910390f35b6100e26103fb565b6040516100ef9190610b85565b60405180910390f35b610112600480360381019061010d919061090d565b610401565b005b61011c61053a565b6040516101299190610a9d565b60405180910390f35b61014c600480360381019061014791906108e4565b61055e565b6040516101599190610ab8565b60405180910390f35b61016a61057e565b6040516101779190610ad3565b60405180910390f35b61019a6004803603810190610195919061094e565b610689565b6040516101a8929190610af5565b60405180910390f35b600260003373ffffffffffffffffffffffffffffffffffffffff1673ffffffffffffffffffffffffffffffffffffffff16815260200190815260200160002060009054906101000a900460ff161561023e576040517f08c379a000000000000000000000000000000000000000000000000000000000815260040161023590610b25565b60405180910390fd5b60008111801561025057506003548111155b61028f576040517f08c379a000000000000000000000000000000000000000000000000000000000815260040161028690610b65565b60405180910390fd5b6001600260003373ffffffffffffffffffffffffffffffffffffffff1673ffffffffffffffffffffffffffffffffffffffff16815260200190815260200160002060006101000a81548160ff02191690831515021790555060016000828152602001908152602001600020600101600081548092919061030e90610d32565b91905055507f030b0f8dcd86a031eddb071f91882edeac8173663ba775713b677b42b51be44b8133604051610344929190610ba0565b60405180910390a150565b600160205280600052604060002060009150905080600001805461037290610d00565b80601f016020809104026020016040519081016040528092919081815260200182805461039e90610d00565b80156103eb5780601f106103c0576101008083540402835291602001916103eb565b820191906000526020600020905b8154815290600101906020018083116103ce57829003601f168201915b5050505050908060010154905082565b60035481565b60008054906101000a900473ffffffffffffffffffffffffffffffffffffffff1673ffffffffffffffffffffffffffffffffffffffff163373ffffffffffffffffffffffffffffffffffffffff161461048f576040517f08c379a000000000000000000000000000000000000000000000000000000000815260040161048690610b45565b60405180910390fd5b600360008154809291906104a290610d32565b91905055506040518060400160405280828152602001600081525060016000600354815260200190815260200160002060008201518160000190805190602001906104ee9291906107af565b50602082015181600101559050507ff970aa486598017b8116c2beb18c50d4584ecbc3c688817f59b26796725f31bf6003548260405161052f929190610bc9565b60405180910390a150565b60008054906101000a900473ffffffffffffffffffffffffffffffffffffffff1681565b60026020528060005260406000206000915054906101000a900460ff1681565b6060600060606000600190505b600354811161068057826001600083815260200190815260200160002060010154111561066d57600160008281526020019081526020016000206001015492506001600082815260200190815260200160002060000180546105ec90610d00565b80601f016020809104026020016040519081016040528092919081815260200182805461061890610d00565b80156106655780601f1061063a57610100808354040283529160200191610665565b820191906000526020600020905b81548152906001019060200180831161064857829003601f168201915b505050505091505b808061067890610d32565b91505061058b565b50809250505090565b60606000808311801561069e57506003548311155b6106dd576040517f08c379a00000000000000000000000000000000000000000000000000000000081526004016106d490610b65565b60405180910390fd5b60006001600085815260200190815260200160002060405180604001604052908160008201805461070d90610d00565b80601f016020809104026020016040519081016040528092919081815260200182805461073990610d00565b80156107865780601f1061075b57610100808354040283529160200191610786565b820191906000526020600020905b81548152906001019060200180831161076957829003601f168201915b505050505081526020016001820154815250509050806000015181602001519250925050915091565b8280546107bb90610d00565b90600052602060002090601f0160209004810192826107dd5760008555610824565b82601f106107f657805160ff1916838001178555610824565b82800160010185558215610824579182015b82811115610823578251825591602001919060010190610808565b5b5090506108319190610835565b5090565b5b8082111561084e576000816000905550600101610836565b5090565b600061086561086084610c2a565b610bf9565b90508281526020810184848401111561087d57600080fd5b610888848285610cbe565b509392505050565b60008135905061089f81610e19565b92915050565b600082601f8301126108b657600080fd5b81356108c6848260208601610852565b91505092915050565b6000813590506108de81610e30565b92915050565b6000602082840312156108f657600080fd5b600061090484828501610890565b91505092915050565b60006020828403121561091f57600080fd5b600082013567ffffffffffffffff81111561093957600080fd5b610945848285016108a5565b91505092915050565b60006020828403121561096057600080fd5b600061096e848285016108cf565b91505092915050565b61098081610c76565b82525050565b61098f81610c88565b82525050565b60006109a082610c5a565b6109aa8185610c65565b93506109ba818560208601610ccd565b6109c381610e08565b840191505092915050565b60006109db601783610c65565b91507f596f75206861766520616c726561647920766f7465642e0000000000000000006000830152602082019050919050565b6000610a1b601c83610c65565b91507f4f6e6c79206f776e65722063616e206164642070726f706f73616c73000000006000830152602082019050919050565b6000610a5b601483610c65565b91507f496e76616c69642070726f706f73616c2049442e0000000000000000000000006000830152602082019050919050565b610a9781610cb4565b82525050565b6000602082019050610ab26000830184610977565b92915050565b6000602082019050610acd6000830184610986565b92915050565b60006020820190508181036000830152610aed8184610995565b905092915050565b60006040820190508181036000830152610b0f8185610995565b9050610b1e6020830184610a8e565b9392505050565b60006020820190508181036000830152610b3e816109ce565b9050919050565b60006020820190508181036000830152610b5e81610a0e565b9050919050565b60006020820190508181036000830152610b7e81610a4e565b9050919050565b6000602082019050610b9a6000830184610a8e565b92915050565b6000604082019050610bb56000830185610a8e565b610bc26020830184610977565b9392505050565b6000604082019050610bde6000830185610a8e565b8181036020830152610bf08184610995565b90509392505050565b6000604051905081810181811067ffffffffffffffff82111715610c2057610c1f610dd9565b5b8060405250919050565b600067ffffffffffffffff821115610c4557610c44610dd9565b5b601f19601f8301169050602081019050919050565b600081519050919050565b600082825260208201905092915050565b6000610c8182610c94565b9050919050565b60008115159050919050565b600073ffffffffffffffffffffffffffffffffffffffff82169050919050565b6000819050919050565b82818337600083830152505050565b60005b83811015610ceb578082015181840152602081019050610cd0565b83811115610cfa576000848401525b50505050565b60006002820490506001821680610d1857607f821691505b60208210811415610d2c57610d2b610daa565b5b50919050565b6000610d3d82610cb4565b91507fffffffffffffffffffffffffffffffffffffffffffffffffffffffffffffffff821415610d7057610d6f610d7b565b5b600182019050919050565b7f4e487b7100000000000000000000000000000000000000000000000000000000600052601160045260246000fd5b7f4e487b7100000000000000000000000000000000000000000000000000000000600052602260045260246000fd5b7f4e487b7100000000000000000000000000000000000000000000000000000000600052604160045260246000fd5b6000601f19601f8301169050919050565b610e2281610c76565b8114610e2d57600080fd5b50565b610e3981610cb4565b8114610e4457600080fd5b5056fea26469706673582212200b2308e38c806fa03efc5429c9e1ac30f49b5ccbc406207706856fcad6c904e564736f6c63430008000033",
  "immutableReferences": {},
  "source": "// SPDX-License-Identifier: MIT\r\npragma solidity ^0.8.0;\r\n\r\ncontract Voting {\r\n    struct Proposal {\r\n        string name;   // Name of the proposal\r\n        uint voteCount; // Number of votes for this proposal\r\n    }\r\n\r\n    address public owner; // Owner of the contract\r\n    mapping(uint => Proposal) public proposals; // Mapping of proposal ID to Proposal\r\n    mapping(address => bool) public voters; // Mapping to track if an address has voted\r\n    uint public proposalsCount; // Number of proposals\r\n\r\n    event ProposalAdded(uint proposalId, string name);\r\n    event Voted(uint proposalId, address voter);\r\n\r\n    constructor() {\r\n        owner = msg.sender; // Set the owner of the contract\r\n    }\r\n\r\n    // Add a new proposal\r\n    function addProposal(string memory _name) public {\r\n        require(msg.sender == owner, \"Only owner can add proposals\");\r\n        proposalsCount++;\r\n        proposals[proposalsCount] = Proposal(_name, 0);\r\n        emit ProposalAdded(proposalsCount, _name);\r\n    }\r\n\r\n    // Vote for a proposal\r\n    function vote(uint _proposalId) public {\r\n        require(!voters[msg.sender], \"You have already voted.\");\r\n        require(_proposalId > 0 && _proposalId <= proposalsCount, \"Invalid proposal ID.\");\r\n\r\n        voters[msg.sender] = true; // Mark the voter as having voted\r\n        proposals[_proposalId].voteCount++; // Increment the vote count for the proposal\r\n        emit Voted(_proposalId, msg.sender);\r\n    }\r\n\r\n    // Get proposal details\r\n    function getProposal(uint _proposalId) public view returns (string memory, uint) {\r\n        require(_proposalId > 0 && _proposalId <= proposalsCount, \"Invalid proposal ID.\");\r\n        Proposal memory proposal = proposals[_proposalId];\r\n        return (proposal.name, proposal.voteCount);\r\n    }\r\n\r\n    // Get the winning proposal\r\n    function getWinningProposal() public view returns (string memory) {\r\n        uint winningVoteCount = 0;\r\n        string memory winningProposalName;\r\n\r\n        for (uint i = 1; i <= proposalsCount; i++) {\r\n            if (proposals[i].voteCount > winningVoteCount) {\r\n                winningVoteCount = proposals[i].voteCount;\r\n                winningProposalName = proposals[i].name;\r\n            }\r\n        }\r\n        return winningProposalName;\r\n    }\r\n}\r\n",
  "sourcePath": "C:\\Users\\shrey\\Downloads\\Decentralized-Voting-System\\contracts\\Voting.sol",
  "compiler": {
    "name": "solc",
    "version": "0.8.0+commit.c7dfd78e.Emscripten.clang"
  },
  "schemaVersion": "3.4.16",
  "updatedAt": "2024-10-30T20:26:42.285Z",
  "networkType": "ethereum",
  "devdoc": {
    "kind": "dev",
    "methods": {},
    "version": 1
  },
  "userdoc": {
    "kind": "user",
    "methods": {},
    "version": 1
  }
}